{
  "_format": "hh-sol-artifact-1",
  "contractName": "Keyboards",
  "sourceName": "contracts/Keyboards.sol",
  "abi": [
    {
      "inputs": [
        {
          "internalType": "enum Keyboards.KeyboardKind",
          "name": "_kind",
          "type": "uint8"
        },
        {
          "internalType": "bool",
          "name": "_isPBT",
          "type": "bool"
        },
        {
          "internalType": "string",
          "name": "_filter",
          "type": "string"
        }
      ],
      "name": "create",
      "outputs": [],
      "stateMutability": "nonpayable",
      "type": "function"
    },
    {
      "inputs": [
        {
          "internalType": "uint256",
          "name": "",
          "type": "uint256"
        }
      ],
      "name": "createdKeyboards",
      "outputs": [
        {
          "internalType": "enum Keyboards.KeyboardKind",
          "name": "kind",
          "type": "uint8"
        },
        {
          "internalType": "bool",
          "name": "isPBT",
          "type": "bool"
        },
        {
          "internalType": "string",
          "name": "filter",
          "type": "string"
        },
        {
          "internalType": "address",
          "name": "owner",
          "type": "address"
        }
      ],
      "stateMutability": "view",
      "type": "function"
    },
    {
      "inputs": [],
      "name": "getKeyboards",
      "outputs": [
        {
          "components": [
            {
              "internalType": "enum Keyboards.KeyboardKind",
              "name": "kind",
              "type": "uint8"
            },
            {
              "internalType": "bool",
              "name": "isPBT",
              "type": "bool"
            },
            {
              "internalType": "string",
              "name": "filter",
              "type": "string"
            },
            {
              "internalType": "address",
              "name": "owner",
              "type": "address"
            }
          ],
          "internalType": "struct Keyboards.Keyboard[]",
          "name": "",
          "type": "tuple[]"
        }
      ],
      "stateMutability": "view",
      "type": "function"
    },
    {
      "inputs": [
        {
          "internalType": "uint256",
          "name": "_index",
          "type": "uint256"
        }
      ],
      "name": "tip",
      "outputs": [],
      "stateMutability": "payable",
      "type": "function"
    }
  ],
  "bytecode": "0x608060405234801561001057600080fd5b50610c77806100206000396000f3fe60806040526004361061003f5760003560e01c806352810aa114610044578063778bc8471461006f578063d80ad431146100af578063e8b69bc3146100d8575b600080fd5b34801561005057600080fd5b506100596100f4565b60405161006691906109da565b60405180910390f35b34801561007b57600080fd5b50610096600480360381019061009191906107f9565b6102dd565b6040516100a694939291906109fc565b60405180910390f35b3480156100bb57600080fd5b506100d660048036038101906100d1919061078d565b6103df565b005b6100f260048036038101906100ed91906107f9565b6105a7565b005b60606000805480602002602001604051908101604052809291908181526020016000905b828210156102d457838290600052602060002090600302016040518060800160405290816000820160009054906101000a900460ff166003811115610186577f4e487b7100000000000000000000000000000000000000000000000000000000600052602160045260246000fd5b60038111156101be577f4e487b7100000000000000000000000000000000000000000000000000000000600052602160045260246000fd5b81526020016000820160019054906101000a900460ff161515151581526020016001820180546101ed90610b4e565b80601f016020809104026020016040519081016040528092919081815260200182805461021990610b4e565b80156102665780601f1061023b57610100808354040283529160200191610266565b820191906000526020600020905b81548152906001019060200180831161024957829003601f168201915b505050505081526020016002820160009054906101000a900473ffffffffffffffffffffffffffffffffffffffff1673ffffffffffffffffffffffffffffffffffffffff1673ffffffffffffffffffffffffffffffffffffffff168152505081526020019060010190610118565b50505050905090565b600081815481106102ed57600080fd5b90600052602060002090600302016000915090508060000160009054906101000a900460ff16908060000160019054906101000a900460ff169080600101805461033690610b4e565b80601f016020809104026020016040519081016040528092919081815260200182805461036290610b4e565b80156103af5780601f10610384576101008083540402835291602001916103af565b820191906000526020600020905b81548152906001019060200180831161039257829003601f168201915b5050505050908060020160009054906101000a900473ffffffffffffffffffffffffffffffffffffffff16905084565b60006040518060800160405280866003811115610425577f4e487b7100000000000000000000000000000000000000000000000000000000600052602160045260246000fd5b8152602001851515815260200184848080601f016020809104026020016040519081016040528093929190818152602001838380828437600081840152601f19601f8201169050808301925050505050505081526020013373ffffffffffffffffffffffffffffffffffffffff168152509050600081908060018154018082558091505060019003906000526020600020906003020160009091909190915060008201518160000160006101000a81548160ff02191690836003811115610515577f4e487b7100000000000000000000000000000000000000000000000000000000600052602160045260246000fd5b021790555060208201518160000160016101000a81548160ff0219169083151502179055506040820151816001019080519060200190610556929190610661565b5060608201518160020160006101000a81548173ffffffffffffffffffffffffffffffffffffffff021916908373ffffffffffffffffffffffffffffffffffffffff16021790555050505050505050565b60008082815481106105e2577f4e487b7100000000000000000000000000000000000000000000000000000000600052603260045260246000fd5b906000526020600020906003020160020160009054906101000a900473ffffffffffffffffffffffffffffffffffffffff1690508073ffffffffffffffffffffffffffffffffffffffff166108fc349081150290604051600060405180830381858888f1935050505015801561065c573d6000803e3d6000fd5b505050565b82805461066d90610b4e565b90600052602060002090601f01602090048101928261068f57600085556106d6565b82601f106106a857805160ff19168380011785556106d6565b828001600101855582156106d6579182015b828111156106d55782518255916020019190600101906106ba565b5b5090506106e391906106e7565b5090565b5b808211156107005760008160009055506001016106e8565b5090565b60008135905061071381610c03565b92915050565b60008135905061072881610c1a565b92915050565b60008083601f84011261074057600080fd5b8235905067ffffffffffffffff81111561075957600080fd5b60208301915083600182028301111561077157600080fd5b9250929050565b60008135905061078781610c2a565b92915050565b600080600080606085870312156107a357600080fd5b60006107b187828801610719565b94505060206107c287828801610704565b935050604085013567ffffffffffffffff8111156107df57600080fd5b6107eb8782880161072e565b925092505092959194509250565b60006020828403121561080b57600080fd5b600061081984828501610778565b91505092915050565b600061082e8383610977565b905092915050565b61083f81610aae565b82525050565b61084e81610aae565b82525050565b600061085f82610a58565b6108698185610a7b565b93508360208202850161087b85610a48565b8060005b858110156108b757848403895281516108988582610822565b94506108a383610a6e565b925060208a0199505060018101905061087f565b50829750879550505050505092915050565b6108d281610ac0565b82525050565b6108e181610ac0565b82525050565b6108f081610b09565b82525050565b6108ff81610b09565b82525050565b600061091082610a63565b61091a8185610a8c565b935061092a818560208601610b1b565b61093381610bde565b840191505092915050565b600061094982610a63565b6109538185610a9d565b9350610963818560208601610b1b565b61096c81610bde565b840191505092915050565b600060808301600083015161098f60008601826108e7565b5060208301516109a260208601826108c9565b50604083015184820360408601526109ba8282610905565b91505060608301516109cf6060860182610836565b508091505092915050565b600060208201905081810360008301526109f48184610854565b905092915050565b6000608082019050610a1160008301876108f6565b610a1e60208301866108d8565b8181036040830152610a30818561093e565b9050610a3f6060830184610845565b95945050505050565b6000819050602082019050919050565b600081519050919050565b600081519050919050565b6000602082019050919050565b600082825260208201905092915050565b600082825260208201905092915050565b600082825260208201905092915050565b6000610ab982610adf565b9050919050565b60008115159050919050565b6000819050610ada82610bef565b919050565b600073ffffffffffffffffffffffffffffffffffffffff82169050919050565b6000819050919050565b6000610b1482610acc565b9050919050565b60005b83811015610b39578082015181840152602081019050610b1e565b83811115610b48576000848401525b50505050565b60006002820490506001821680610b6657607f821691505b60208210811415610b7a57610b79610baf565b5b50919050565b7f4e487b7100000000000000000000000000000000000000000000000000000000600052602160045260246000fd5b7f4e487b7100000000000000000000000000000000000000000000000000000000600052602260045260246000fd5b6000601f19601f8301169050919050565b60048110610c0057610bff610b80565b5b50565b610c0c81610ac0565b8114610c1757600080fd5b50565b60048110610c2757600080fd5b50565b610c3381610aff565b8114610c3e57600080fd5b5056fea26469706673582212201c49005008f7418102b4b2ba9961fb169860262ede10f0d506cafad4e61910a564736f6c63430008040033",
  "linkReferences": {},
  "deployedLinkReferences": {}
}