{
  "_format": "hh-sol-artifact-1",
  "contractName": "Keyboards",
  "sourceName": "contracts/Keyboards.sol",
  "abi": [
    {
      "inputs": [
        {
          "internalType": "string",
          "name": "_description",
          "type": "string"
        }
      ],
      "name": "create",
      "outputs": [],
      "stateMutability": "nonpayable",
      "type": "function"
    },
    {
      "inputs": [
        {
          "internalType": "uint256",
          "name": "",
          "type": "uint256"
        }
      ],
      "name": "createdKeyboards",
      "outputs": [
        {
          "internalType": "string",
          "name": "",
          "type": "string"
        }
      ],
      "stateMutability": "view",
      "type": "function"
    },
    {
      "inputs": [],
      "name": "getKeyboards",
      "outputs": [
        {
          "internalType": "string[]",
          "name": "",
          "type": "string[]"
        }
      ],
      "stateMutability": "view",
      "type": "function"
    }
  ],
  "bytecode": "0x608060405234801561001057600080fd5b50610688806100206000396000f3fe608060405234801561001057600080fd5b50600436106100415760003560e01c806352810aa114610046578063778bc84714610064578063b6a46b3b14610094575b600080fd5b61004e6100b0565b60405161005b91906104e2565b60405180910390f35b61007e600480360381019061007991906103be565b610189565b60405161008b9190610504565b60405180910390f35b6100ae60048036038101906100a99190610379565b610235565b005b60606000805480602002602001604051908101604052809291908181526020016000905b828210156101805783829060005260206000200180546100f3906105c9565b80601f016020809104026020016040519081016040528092919081815260200182805461011f906105c9565b801561016c5780601f106101415761010080835404028352916020019161016c565b820191906000526020600020905b81548152906001019060200180831161014f57829003601f168201915b5050505050815260200190600101906100d4565b50505050905090565b6000818154811061019957600080fd5b9060005260206000200160009150905080546101b4906105c9565b80601f01602080910402602001604051908101604052809291908181526020018280546101e0906105c9565b801561022d5780601f106102025761010080835404028352916020019161022d565b820191906000526020600020905b81548152906001019060200180831161021057829003601f168201915b505050505081565b6000828290918060018154018082558091505060019003906000526020600020016000909192909192909192909192509190610272929190610277565b505050565b828054610283906105c9565b90600052602060002090601f0160209004810192826102a557600085556102ec565b82601f106102be57803560ff19168380011785556102ec565b828001600101855582156102ec579182015b828111156102eb5782358255916020019190600101906102d0565b5b5090506102f991906102fd565b5090565b5b808211156103165760008160009055506001016102fe565b5090565b60008083601f84011261032c57600080fd5b8235905067ffffffffffffffff81111561034557600080fd5b60208301915083600182028301111561035d57600080fd5b9250929050565b6000813590506103738161063b565b92915050565b6000806020838503121561038c57600080fd5b600083013567ffffffffffffffff8111156103a657600080fd5b6103b28582860161031a565b92509250509250929050565b6000602082840312156103d057600080fd5b60006103de84828501610364565b91505092915050565b60006103f38383610470565b905092915050565b600061040682610536565b6104108185610559565b93508360208202850161042285610526565b8060005b8581101561045e578484038952815161043f85826103e7565b945061044a8361054c565b925060208a01995050600181019050610426565b50829750879550505050505092915050565b600061047b82610541565b610485818561056a565b9350610495818560208601610596565b61049e8161062a565b840191505092915050565b60006104b482610541565b6104be818561057b565b93506104ce818560208601610596565b6104d78161062a565b840191505092915050565b600060208201905081810360008301526104fc81846103fb565b905092915050565b6000602082019050818103600083015261051e81846104a9565b905092915050565b6000819050602082019050919050565b600081519050919050565b600081519050919050565b6000602082019050919050565b600082825260208201905092915050565b600082825260208201905092915050565b600082825260208201905092915050565b6000819050919050565b60005b838110156105b4578082015181840152602081019050610599565b838111156105c3576000848401525b50505050565b600060028204905060018216806105e157607f821691505b602082108114156105f5576105f46105fb565b5b50919050565b7f4e487b7100000000000000000000000000000000000000000000000000000000600052602260045260246000fd5b6000601f19601f8301169050919050565b6106448161058c565b811461064f57600080fd5b5056fea264697066735822122039a95de7154083d1796a2d6f0bd8356fc5b6a2ae154d5dd2a0667f57774b38dd64736f6c63430008040033",
  "linkReferences": {},
  "deployedLinkReferences": {}
}