{
  "_format": "hh-sol-artifact-1",
  "contractName": "Keyboards",
  "sourceName": "contracts/Keyboards.sol",
  "abi": [
    {
      "anonymous": false,
      "inputs": [
        {
          "components": [
            {
              "internalType": "enum Keyboards.KeyboardKind",
              "name": "kind",
              "type": "uint8"
            },
            {
              "internalType": "bool",
              "name": "isPBT",
              "type": "bool"
            },
            {
              "internalType": "string",
              "name": "filter",
              "type": "string"
            },
            {
              "internalType": "address",
              "name": "owner",
              "type": "address"
            }
          ],
          "indexed": false,
          "internalType": "struct Keyboards.Keyboard",
          "name": "keyboard",
          "type": "tuple"
        }
      ],
      "name": "KeyboardCreated",
      "type": "event"
    },
    {
      "inputs": [
        {
          "internalType": "enum Keyboards.KeyboardKind",
          "name": "_kind",
          "type": "uint8"
        },
        {
          "internalType": "bool",
          "name": "_isPBT",
          "type": "bool"
        },
        {
          "internalType": "string",
          "name": "_filter",
          "type": "string"
        }
      ],
      "name": "create",
      "outputs": [],
      "stateMutability": "nonpayable",
      "type": "function"
    },
    {
      "inputs": [
        {
          "internalType": "uint256",
          "name": "",
          "type": "uint256"
        }
      ],
      "name": "createdKeyboards",
      "outputs": [
        {
          "internalType": "enum Keyboards.KeyboardKind",
          "name": "kind",
          "type": "uint8"
        },
        {
          "internalType": "bool",
          "name": "isPBT",
          "type": "bool"
        },
        {
          "internalType": "string",
          "name": "filter",
          "type": "string"
        },
        {
          "internalType": "address",
          "name": "owner",
          "type": "address"
        }
      ],
      "stateMutability": "view",
      "type": "function"
    },
    {
      "inputs": [],
      "name": "getKeyboards",
      "outputs": [
        {
          "components": [
            {
              "internalType": "enum Keyboards.KeyboardKind",
              "name": "kind",
              "type": "uint8"
            },
            {
              "internalType": "bool",
              "name": "isPBT",
              "type": "bool"
            },
            {
              "internalType": "string",
              "name": "filter",
              "type": "string"
            },
            {
              "internalType": "address",
              "name": "owner",
              "type": "address"
            }
          ],
          "internalType": "struct Keyboards.Keyboard[]",
          "name": "",
          "type": "tuple[]"
        }
      ],
      "stateMutability": "view",
      "type": "function"
    },
    {
      "inputs": [
        {
          "internalType": "address payable",
          "name": "_owner",
          "type": "address"
        }
      ],
      "name": "tip",
      "outputs": [],
      "stateMutability": "payable",
      "type": "function"
    }
  ],
  "bytecode": "0x608060405234801561001057600080fd5b50610d2a806100206000396000f3fe60806040526004361061003f5760003560e01c806352810aa114610044578063778bc8471461006f578063ac733ef7146100af578063d80ad431146100cb575b600080fd5b34801561005057600080fd5b506100596100f4565b6040516100669190610a42565b60405180910390f35b34801561007b57600080fd5b50610096600480360381019061009191906107fe565b6102dd565b6040516100a69493929190610a64565b60405180910390f35b6100c960048036038101906100c49190610769565b6103df565b005b3480156100d757600080fd5b506100f260048036038101906100ed9190610792565b610429565b005b60606000805480602002602001604051908101604052809291908181526020016000905b828210156102d457838290600052602060002090600302016040518060800160405290816000820160009054906101000a900460ff166003811115610186577f4e487b7100000000000000000000000000000000000000000000000000000000600052602160045260246000fd5b60038111156101be577f4e487b7100000000000000000000000000000000000000000000000000000000600052602160045260246000fd5b81526020016000820160019054906101000a900460ff161515151581526020016001820180546101ed90610bea565b80601f016020809104026020016040519081016040528092919081815260200182805461021990610bea565b80156102665780601f1061023b57610100808354040283529160200191610266565b820191906000526020600020905b81548152906001019060200180831161024957829003601f168201915b505050505081526020016002820160009054906101000a900473ffffffffffffffffffffffffffffffffffffffff1673ffffffffffffffffffffffffffffffffffffffff1673ffffffffffffffffffffffffffffffffffffffff168152505081526020019060010190610118565b50505050905090565b600081815481106102ed57600080fd5b90600052602060002090600302016000915090508060000160009054906101000a900460ff16908060000160019054906101000a900460ff169080600101805461033690610bea565b80601f016020809104026020016040519081016040528092919081815260200182805461036290610bea565b80156103af5780601f10610384576101008083540402835291602001916103af565b820191906000526020600020905b81548152906001019060200180831161039257829003601f168201915b5050505050908060020160009054906101000a900473ffffffffffffffffffffffffffffffffffffffff16905084565b8073ffffffffffffffffffffffffffffffffffffffff166108fc349081150290604051600060405180830381858888f19350505050158015610425573d6000803e3d6000fd5b5050565b6000604051806080016040528086600381111561046f577f4e487b7100000000000000000000000000000000000000000000000000000000600052602160045260246000fd5b8152602001851515815260200184848080601f016020809104026020016040519081016040528093929190818152602001838380828437600081840152601f19601f8201169050808301925050505050505081526020013373ffffffffffffffffffffffffffffffffffffffff168152509050600081908060018154018082558091505060019003906000526020600020906003020160009091909190915060008201518160000160006101000a81548160ff0219169083600381111561055f577f4e487b7100000000000000000000000000000000000000000000000000000000600052602160045260246000fd5b021790555060208201518160000160016101000a81548160ff02191690831515021790555060408201518160010190805190602001906105a0929190610628565b5060608201518160020160006101000a81548173ffffffffffffffffffffffffffffffffffffffff021916908373ffffffffffffffffffffffffffffffffffffffff16021790555050507f10a5f72cc15ad697630d0470547e58335ec196e4ce08851d095d19398b1cbdd7816040516106199190610ab0565b60405180910390a15050505050565b82805461063490610bea565b90600052602060002090601f016020900481019282610656576000855561069d565b82601f1061066f57805160ff191683800117855561069d565b8280016001018555821561069d579182015b8281111561069c578251825591602001919060010190610681565b5b5090506106aa91906106ae565b5090565b5b808211156106c75760008160009055506001016106af565b5090565b6000813590506106da81610c9f565b92915050565b6000813590506106ef81610cb6565b92915050565b60008135905061070481610ccd565b92915050565b60008083601f84011261071c57600080fd5b8235905067ffffffffffffffff81111561073557600080fd5b60208301915083600182028301111561074d57600080fd5b9250929050565b60008135905061076381610cdd565b92915050565b60006020828403121561077b57600080fd5b6000610789848285016106cb565b91505092915050565b600080600080606085870312156107a857600080fd5b60006107b6878288016106f5565b94505060206107c7878288016106e0565b935050604085013567ffffffffffffffff8111156107e457600080fd5b6107f08782880161070a565b925092505092959194509250565b60006020828403121561081057600080fd5b600061081e84828501610754565b91505092915050565b6000610833838361097c565b905092915050565b61084481610b38565b82525050565b61085381610b38565b82525050565b600061086482610ae2565b61086e8185610b05565b93508360208202850161088085610ad2565b8060005b858110156108bc578484038952815161089d8582610827565b94506108a883610af8565b925060208a01995050600181019050610884565b50829750879550505050505092915050565b6108d781610b5c565b82525050565b6108e681610b5c565b82525050565b6108f581610ba5565b82525050565b61090481610ba5565b82525050565b600061091582610aed565b61091f8185610b16565b935061092f818560208601610bb7565b61093881610c7a565b840191505092915050565b600061094e82610aed565b6109588185610b27565b9350610968818560208601610bb7565b61097181610c7a565b840191505092915050565b600060808301600083015161099460008601826108ec565b5060208301516109a760208601826108ce565b50604083015184820360408601526109bf828261090a565b91505060608301516109d4606086018261083b565b508091505092915050565b60006080830160008301516109f760008601826108ec565b506020830151610a0a60208601826108ce565b5060408301518482036040860152610a22828261090a565b9150506060830151610a37606086018261083b565b508091505092915050565b60006020820190508181036000830152610a5c8184610859565b905092915050565b6000608082019050610a7960008301876108fb565b610a8660208301866108dd565b8181036040830152610a988185610943565b9050610aa7606083018461084a565b95945050505050565b60006020820190508181036000830152610aca81846109df565b905092915050565b6000819050602082019050919050565b600081519050919050565b600081519050919050565b6000602082019050919050565b600082825260208201905092915050565b600082825260208201905092915050565b600082825260208201905092915050565b6000610b4382610b7b565b9050919050565b6000610b5582610b7b565b9050919050565b60008115159050919050565b6000819050610b7682610c8b565b919050565b600073ffffffffffffffffffffffffffffffffffffffff82169050919050565b6000819050919050565b6000610bb082610b68565b9050919050565b60005b83811015610bd5578082015181840152602081019050610bba565b83811115610be4576000848401525b50505050565b60006002820490506001821680610c0257607f821691505b60208210811415610c1657610c15610c4b565b5b50919050565b7f4e487b7100000000000000000000000000000000000000000000000000000000600052602160045260246000fd5b7f4e487b7100000000000000000000000000000000000000000000000000000000600052602260045260246000fd5b6000601f19601f8301169050919050565b60048110610c9c57610c9b610c1c565b5b50565b610ca881610b4a565b8114610cb357600080fd5b50565b610cbf81610b5c565b8114610cca57600080fd5b50565b60048110610cda57600080fd5b50565b610ce681610b9b565b8114610cf157600080fd5b5056fea2646970667358221220efb52b9c8ef34c3e43381aa6078dda51b2d6049190910c32f00497de709305d564736f6c63430008040033",
  "linkReferences": {},
  "deployedLinkReferences": {}
}