{
  "_format": "hh-sol-artifact-1",
  "contractName": "Keyboards",
  "sourceName": "contracts/Keyboards.sol",
  "abi": [
    {
      "anonymous": false,
      "inputs": [
        {
          "components": [
            {
              "internalType": "enum Keyboards.KeyboardKind",
              "name": "kind",
              "type": "uint8"
            },
            {
              "internalType": "bool",
              "name": "isPBT",
              "type": "bool"
            },
            {
              "internalType": "string",
              "name": "filter",
              "type": "string"
            },
            {
              "internalType": "address",
              "name": "owner",
              "type": "address"
            }
          ],
          "indexed": false,
          "internalType": "struct Keyboards.Keyboard",
          "name": "keyboard",
          "type": "tuple"
        }
      ],
      "name": "KeyboardCreated",
      "type": "event"
    },
    {
      "anonymous": false,
      "inputs": [
        {
          "indexed": false,
          "internalType": "address",
          "name": "recipient",
          "type": "address"
        },
        {
          "indexed": false,
          "internalType": "uint256",
          "name": "amount",
          "type": "uint256"
        }
      ],
      "name": "TipSent",
      "type": "event"
    },
    {
      "inputs": [
        {
          "internalType": "enum Keyboards.KeyboardKind",
          "name": "_kind",
          "type": "uint8"
        },
        {
          "internalType": "bool",
          "name": "_isPBT",
          "type": "bool"
        },
        {
          "internalType": "string",
          "name": "_filter",
          "type": "string"
        }
      ],
      "name": "create",
      "outputs": [],
      "stateMutability": "nonpayable",
      "type": "function"
    },
    {
      "inputs": [
        {
          "internalType": "uint256",
          "name": "",
          "type": "uint256"
        }
      ],
      "name": "createdKeyboards",
      "outputs": [
        {
          "internalType": "enum Keyboards.KeyboardKind",
          "name": "kind",
          "type": "uint8"
        },
        {
          "internalType": "bool",
          "name": "isPBT",
          "type": "bool"
        },
        {
          "internalType": "string",
          "name": "filter",
          "type": "string"
        },
        {
          "internalType": "address",
          "name": "owner",
          "type": "address"
        }
      ],
      "stateMutability": "view",
      "type": "function"
    },
    {
      "inputs": [],
      "name": "getKeyboards",
      "outputs": [
        {
          "components": [
            {
              "internalType": "enum Keyboards.KeyboardKind",
              "name": "kind",
              "type": "uint8"
            },
            {
              "internalType": "bool",
              "name": "isPBT",
              "type": "bool"
            },
            {
              "internalType": "string",
              "name": "filter",
              "type": "string"
            },
            {
              "internalType": "address",
              "name": "owner",
              "type": "address"
            }
          ],
          "internalType": "struct Keyboards.Keyboard[]",
          "name": "",
          "type": "tuple[]"
        }
      ],
      "stateMutability": "view",
      "type": "function"
    },
    {
      "inputs": [
        {
          "internalType": "uint256",
          "name": "_index",
          "type": "uint256"
        }
      ],
      "name": "tip",
      "outputs": [],
      "stateMutability": "payable",
      "type": "function"
    }
  ],
  "bytecode": "0x608060405234801561001057600080fd5b50610de9806100206000396000f3fe60806040526004361061003f5760003560e01c806352810aa114610044578063778bc8471461006f578063d80ad431146100af578063e8b69bc3146100d8575b600080fd5b34801561005057600080fd5b506100596100f4565b6040516100669190610af4565b60405180910390f35b34801561007b57600080fd5b5061009660048036038101906100919190610869565b6102dd565b6040516100a69493929190610b16565b60405180910390f35b3480156100bb57600080fd5b506100d660048036038101906100d191906107fd565b6103df565b005b6100f260048036038101906100ed9190610869565b6105de565b005b60606000805480602002602001604051908101604052809291908181526020016000905b828210156102d457838290600052602060002090600302016040518060800160405290816000820160009054906101000a900460ff166003811115610186577f4e487b7100000000000000000000000000000000000000000000000000000000600052602160045260246000fd5b60038111156101be577f4e487b7100000000000000000000000000000000000000000000000000000000600052602160045260246000fd5b81526020016000820160019054906101000a900460ff161515151581526020016001820180546101ed90610cc0565b80601f016020809104026020016040519081016040528092919081815260200182805461021990610cc0565b80156102665780601f1061023b57610100808354040283529160200191610266565b820191906000526020600020905b81548152906001019060200180831161024957829003601f168201915b505050505081526020016002820160009054906101000a900473ffffffffffffffffffffffffffffffffffffffff1673ffffffffffffffffffffffffffffffffffffffff1673ffffffffffffffffffffffffffffffffffffffff168152505081526020019060010190610118565b50505050905090565b600081815481106102ed57600080fd5b90600052602060002090600302016000915090508060000160009054906101000a900460ff16908060000160019054906101000a900460ff169080600101805461033690610cc0565b80601f016020809104026020016040519081016040528092919081815260200182805461036290610cc0565b80156103af5780601f10610384576101008083540402835291602001916103af565b820191906000526020600020905b81548152906001019060200180831161039257829003601f168201915b5050505050908060020160009054906101000a900473ffffffffffffffffffffffffffffffffffffffff16905084565b60006040518060800160405280866003811115610425577f4e487b7100000000000000000000000000000000000000000000000000000000600052602160045260246000fd5b8152602001851515815260200184848080601f016020809104026020016040519081016040528093929190818152602001838380828437600081840152601f19601f8201169050808301925050505050505081526020013373ffffffffffffffffffffffffffffffffffffffff168152509050600081908060018154018082558091505060019003906000526020600020906003020160009091909190915060008201518160000160006101000a81548160ff02191690836003811115610515577f4e487b7100000000000000000000000000000000000000000000000000000000600052602160045260246000fd5b021790555060208201518160000160016101000a81548160ff02191690831515021790555060408201518160010190805190602001906105569291906106d1565b5060608201518160020160006101000a81548173ffffffffffffffffffffffffffffffffffffffff021916908373ffffffffffffffffffffffffffffffffffffffff16021790555050507f10a5f72cc15ad697630d0470547e58335ec196e4ce08851d095d19398b1cbdd7816040516105cf9190610b62565b60405180910390a15050505050565b6000808281548110610619577f4e487b7100000000000000000000000000000000000000000000000000000000600052603260045260246000fd5b906000526020600020906003020160020160009054906101000a900473ffffffffffffffffffffffffffffffffffffffff1690508073ffffffffffffffffffffffffffffffffffffffff166108fc349081150290604051600060405180830381858888f19350505050158015610693573d6000803e3d6000fd5b507f171011172a05babdafffeb4c3cb97a07f0e1e7a0538eab4f4331336fb76fef0581346040516106c5929190610acb565b60405180910390a15050565b8280546106dd90610cc0565b90600052602060002090601f0160209004810192826106ff5760008555610746565b82601f1061071857805160ff1916838001178555610746565b82800160010185558215610746579182015b8281111561074557825182559160200191906001019061072a565b5b5090506107539190610757565b5090565b5b80821115610770576000816000905550600101610758565b5090565b60008135905061078381610d75565b92915050565b60008135905061079881610d8c565b92915050565b60008083601f8401126107b057600080fd5b8235905067ffffffffffffffff8111156107c957600080fd5b6020830191508360018202830111156107e157600080fd5b9250929050565b6000813590506107f781610d9c565b92915050565b6000806000806060858703121561081357600080fd5b600061082187828801610789565b945050602061083287828801610774565b935050604085013567ffffffffffffffff81111561084f57600080fd5b61085b8782880161079e565b925092505092959194509250565b60006020828403121561087b57600080fd5b6000610889848285016107e8565b91505092915050565b600061089e83836109f6565b905092915050565b6108af81610c45565b82525050565b6108be81610bea565b82525050565b6108cd81610bea565b82525050565b60006108de82610b94565b6108e88185610bb7565b9350836020820285016108fa85610b84565b8060005b8581101561093657848403895281516109178582610892565b945061092283610baa565b925060208a019950506001810190506108fe565b50829750879550505050505092915050565b61095181610bfc565b82525050565b61096081610bfc565b82525050565b61096f81610c57565b82525050565b61097e81610c57565b82525050565b600061098f82610b9f565b6109998185610bc8565b93506109a9818560208601610c8d565b6109b281610d50565b840191505092915050565b60006109c882610b9f565b6109d28185610bd9565b93506109e2818560208601610c8d565b6109eb81610d50565b840191505092915050565b6000608083016000830151610a0e6000860182610966565b506020830151610a216020860182610948565b5060408301518482036040860152610a398282610984565b9150506060830151610a4e60608601826108b5565b508091505092915050565b6000608083016000830151610a716000860182610966565b506020830151610a846020860182610948565b5060408301518482036040860152610a9c8282610984565b9150506060830151610ab160608601826108b5565b508091505092915050565b610ac581610c3b565b82525050565b6000604082019050610ae060008301856108a6565b610aed6020830184610abc565b9392505050565b60006020820190508181036000830152610b0e81846108d3565b905092915050565b6000608082019050610b2b6000830187610975565b610b386020830186610957565b8181036040830152610b4a81856109bd565b9050610b5960608301846108c4565b95945050505050565b60006020820190508181036000830152610b7c8184610a59565b905092915050565b6000819050602082019050919050565b600081519050919050565b600081519050919050565b6000602082019050919050565b600082825260208201905092915050565b600082825260208201905092915050565b600082825260208201905092915050565b6000610bf582610c1b565b9050919050565b60008115159050919050565b6000819050610c1682610d61565b919050565b600073ffffffffffffffffffffffffffffffffffffffff82169050919050565b6000819050919050565b6000610c5082610c69565b9050919050565b6000610c6282610c08565b9050919050565b6000610c7482610c7b565b9050919050565b6000610c8682610c1b565b9050919050565b60005b83811015610cab578082015181840152602081019050610c90565b83811115610cba576000848401525b50505050565b60006002820490506001821680610cd857607f821691505b60208210811415610cec57610ceb610d21565b5b50919050565b7f4e487b7100000000000000000000000000000000000000000000000000000000600052602160045260246000fd5b7f4e487b7100000000000000000000000000000000000000000000000000000000600052602260045260246000fd5b6000601f19601f8301169050919050565b60048110610d7257610d71610cf2565b5b50565b610d7e81610bfc565b8114610d8957600080fd5b50565b60048110610d9957600080fd5b50565b610da581610c3b565b8114610db057600080fd5b5056fea264697066735822122059d530f0d120440e620f89004c353974c8aaf29d915e86bfd93171ff07c6c26b64736f6c63430008040033",
  "linkReferences": {},
  "deployedLinkReferences": {}
}